:10000000008000203D2F00007D2F00007F2F00008A
:1000100000000000000000000000000000000000E0
:10002000000000000000000000000000A903000024
:100030000000000000000000B5030000852F000054
:10004000872F0000872F00008D280000872F0000D9
:10005000872F000000000000693F0000872F00008C
:10006000872F0000872F0000872F0000872F0000B8
:10007000872F0000872F0000872F0000872F0000A8
:10008000872F000055080000872F0000872F0000F1
:10009000872F0000872F0000872F0000872F000088
:1000A000872F0000872F00000000000000000000E4
:1000B0000000000000000000000000000000000040
:1000C00010B5064C2378002B07D1054B002B02D02E
:1000D000044800E000BF0123237010BD4804002045
:1000E0000000000074590000044B10B5002B03D031
:1000F0000349044800E000BF10BDC04600000000F6
:100100004C04002074590000402292029A1A924630
:100110007047C046174B002B00D1134B9D46FFF78D
:10012000F3FF00218B460F461348144A121A04F0BD
:1001300013F90E4B002B00D098470D4B002B00D02D
:1001400098470020002104000D000D48002802D02F
:100150000C4804F0EBF904F08BF82000290002F0C1
:10016000EFFF04F075F8C046000008000000000032
:100170000000000000800020480400203C1A0020FD
:100180002D450000FD44000080B584B000AF7860CC
:100190000023FB607B680722134004D07B680722A2
:1001A000934308337B6001F017F9164B1B68002B53
:1001B00005D1154B072293431A00124B1A60134BBB
:1001C0001A687B68D318124A934213D80F4B1A68E7
:1001D0007B68D2180D4B1B689A420BD9094B1A68E1
:1001E0000A4B1B68D318FB60084B1A687B68D2184F
:1001F000064B1A6001F0FCF8FB681800BD4604B01D
:1002000080BDC046681400206C04002064140020E7
:10021000F70F000080B582B000AF7860C046BD46E1
:1002200002B080BD80B582B000AF78607B680833D3
:100230001A007B685A607B68012252429A607B6890
:1002400008331A007B68DA607B6808331A007B6821
:100250001A617B6800221A60C046BD4602B080BDAC
:1002600080B582B000AF78607B6800221A61C0461A
:10027000BD4602B080BD80B584B000AF7860396003
:100280007B685B68FB603B68FA685A60FB689A6849
:100290003B689A60FB689B683A685A60FB683A68FA
:1002A0009A603B687A681A617B681B685A1C7B6895
:1002B0001A60C046BD4604B080BD80B584B000AFB2
:1002C000786039603B681B68BB60BB68013303D151
:1002D0007B681B69FB600CE07B680833FB6002E015
:1002E000FB685B68FB60FB685B681B68BA689A42E6
:1002F000F6D2FB685A683B685A603B685B683A68AC
:100300009A603B68FA689A60FB683A685A603B6892
:100310007A681A617B681B685A1C7B681A60C04641
:10032000BD4604B080BD80B584B000AF78607B6806
:100330001B69FB607B685B687A6892689A607B687F
:100340009B687A6852685A60FB685B687A689A4270
:1003500003D17B689A68FB685A607B6800221A6147
:10036000FB681B685A1EFB681A60FB681B68180054
:10037000BD4604B080BD00000948006880F30888CD
:10038000084B19680868203080F30988022080F340
:1003900014883FBCAE4662B600BDC046C0460000F1
:1003A000000000007014002080B500AFC046BD46BC
:1003B00080BD0000EFF309800E4B1A6820381060F2
:1003C000F0C044464D4656465F46F0C008B500F0C2
:1003D00041F90CBC116808681030F0C8A046A94665
:1003E000B246BB4680F309882038F0C81847C0469B
:1003F000C04600007014002090B583B000AF02002A
:100400003960FB1D1A70FB1D1B787F2B32D92F4AD8
:10041000FB1D1B7819000F230B40083B9B0806337C
:100420009B00D31804331B68FA1D127811000322B5
:100430000A40D200FF2191400A00D2431A40110025
:100440003B689B01FF221A40FB1D1B781800032309
:100450000340DB009A401D48FB1D1B781C000F2346
:100460002340083B9B080A4306339B00C318043310
:100470001A6027E0164AFB1D1B785BB29B08C0334D
:100480009B009B58FA1D1278110003220A40D200EB
:10049000FF2191400A00D2431A4011003B689B01A2
:1004A000FF221A40FB1D1B78180003230340DB00CA
:1004B0009A400748FB1D1B785BB29B080A43C03378
:1004C0009B001A50C046BD4603B090BD00ED00E051
:1004D00000E100E080B500AF72B6C046C046BD4640
:1004E00080BD80B500AF62B6C046C046BD4680BD87
:1004F00080B584B000AF00237B60EFF31083BB6056
:10050000BB68FB60FB68002B01D172B602E03B1DAB
:1005100001221A707B681800BD4604B080BD80B50A
:1005200084B000AF78607B68FB600C23FB181B78FD
:1005300001225340DBB2002B01D062B6C046C04658
:10054000BD4604B080BD000080B584B000AFF86047
:10055000B9607A60FB68043BFB6000238022520490
:1005600013431A00FB681A60FB68043BFB60BA681F
:10057000FB681A60FB68043BFB60084AFB681A6072
:10058000FB68143BFB607A68FB681A60FB68203BE1
:10059000FB60FB681800BD4604B080BDA1050000EB
:1005A00080B500AFFFF796FFFEE7000080B500AF13
:1005B00002235B420F211800FFF71EFF00F06EF9C7
:1005C000084B00221A60084B1A69074B10210A4396
:1005D0001A61FFF7D1FEFFF7E3FF00231800BD46C5
:1005E00080BDC0466C14002000ED00E080B500AF77
:1005F000074B802252055A6040BFC046BFF34F8F61
:10060000C046BFF36F8FC046C046BD4680BDC046E2
:1006100000ED00E080B500AFFFF75CFF034B1B6807
:100620005A1C024B1A60C046BD4680BD6C140020A7
:1006300080B500AF064B1B685A1E054B1A60044B71
:100640001B68002B01D1FFF74CFFC046BD4680BDA3
:100650006C14002080B582B000AFFFF749FF0300A3
:100660007B6000F0F1FF7B681800FFF758FFC04681
:10067000BD4602B080BD000080B582B000AF020070
:10068000FB1D1A70FB1D1B781A001F23134001224B
:100690009A40034B1A60C046BD4602B080BDC046BA
:1006A00000E100E090B583B000AF02003960FB1DAF
:1006B0001A70FB1D1B787F2B32D92F4AFB1D1B782C
:1006C00019000F230B40083B9B0806339B00D318EF
:1006D00004331B68FA1D1278110003220A40D2006D
:1006E000FF2191400A00D2431A4011003B689B0150
:1006F000FF221A40FB1D1B78180003230340DB0078
:100700009A401D48FB1D1B781C000F232340083B0B
:100710009B080A4306339B00C31804331A6027E082
:10072000164AFB1D1B785BB29B08C0339B009B588D
:10073000FA1D1278110003220A40D200FF219140D5
:100740000A00D2431A4011003B689B01FF221A4065
:10075000FB1D1B78180003230340DB009A40074869
:10076000FB1D1B785BB29B080A43C0339B001A50E9
:10077000C046BD4603B090BD00ED00E000E100E0E2
:1007800080B584B000AF00237B60EFF31083BB60C3
:10079000BB68FB60FB68002B01D172B602E03B1D19
:1007A00001221A707B681800BD4604B080BD80B578
:1007B00084B000AF78607B68FB600C23FB181B786B
:1007C00001225340DBB2002B01D062B6C046C046C6
:1007D000BD4604B080BD80B582B000AF786039609E
:1007E0007A68C1239B003968D150C046BD4602B02B
:1007F00080BD80B582B000AF78600A00BB1C1A8053
:10080000BB1C1B887A68D31800221A60C046BD46FC
:1008100002B080BD80B582B000AF786039607A6880
:10082000A123DB003968D150C046BD4602B080BD6F
:1008300080B582B000AF78600A00FB1C1A70FB1C08
:100840001A787B68D31801221A60C046BD4602B0F0
:1008500080BD000080B582B000AF80235B000D4AF0
:1008600019001000FFF7C5FFFFF78AFF03007B6048
:1008700000F04AFE031E05D0074B802252055A6045
:1008800040BFC0467B681800FFF791FFC046BD46D9
:1008900002B080BD0010014000ED00E080B500AF67
:1008A00002F0ECFD0E4B20211800FFF7B3FF0C4BBC
:1008B00001211800FFF78FFF094B08211800FFF7EF
:1008C000B7FF074B00211800FFF7B2FF0F211120DF
:1008D000FFF7E8FE1120FFF7CFFEC046BD4680BD02
:1008E0000010014080B584B000AF00237B60EFF3BF
:1008F0001083BB60BB68FB60FB68002B01D172B644
:1009000002E03B1D01221A707B681800BD4604B04E
:1009100080BD80B584B000AF78607B68FB600C233D
:10092000FB181B7801225340DBB2002B01D062B6CA
:10093000C046C046BD4604B080BD80B584B000AF9F
:10094000786039607B68FB60FFF764FEFB681A68BB
:10095000FB68D96BFB681B6C4B43D218FB685A6071
:10096000FB6800229A63FB681A68FB689A60FB6860
:100970001A68FB68DB6B591EFB681B6C4B43D21873
:10098000FB68DA60FB68012252425A64FB6801226C
:1009900052429A643B68002B0ED1FB681B69002B06
:1009A00014D0FB681033180000F0F2FE0300012B96
:1009B0000CD1FFF71BFE09E0FB6810331800FFF7AE
:1009C00031FCFB6824331800FFF72CFCFFF730FEE6
:1009D00001231800BD4604B080BD80B588B000AFCB
:1009E000F860B960FB1D1A700023BB61BB68002B67
:1009F00002D10023FB6104E0FB68BA685343013372
:100A0000FB61FB694C331800FFF7BEFB03007B6101
:100A10007B69002B1AD07B693B61BB68002B03D13B
:100A20003B693A691A6004E07B694C331A003B6900
:100A30001A603B69FA68DA633B69BA681A643B6911
:100A400001211800FFF779FF3B69BB61BB69180002
:100A5000BD4608B080BD80B58AB000AFF860B9600F
:100A60007A603B6000237B62FB683B62FFF7D2FD4C
:100A70003B6A9A6B3B6ADB6B9A4202D33B68022B60
:100A80001FD13A68B9683B6A180000F06FF903009B
:100A9000FB613B6A5B6A002B0AD03B6A2433180077
:100AA00000F076FE0300012B07D1FFF79FFD04E065
:100AB000FB69002B01D0FFF799FDFFF7B9FD01237A
:100AC00055E07B68002B03D1FFF7B2FD00234EE019
:100AD0007B6A002B06D11423FB18180000F0B0FE2F
:100AE00001237B62FFF7A4FD00F076FCFFF792FD87
:100AF0003B6A5B6C013302D13B6A00225A643B6A59
:100B00009B6C013302D13B6A00229A64FFF790FD8F
:100B10003A1D1423FB181100180000F0A5FE031E57
:100B20001ED13B6A180000F013FA031E11D03B6A75
:100B300010337A681100180000F0D0FD3B6A1800ED
:100B400000F0A6F900F054FC031E8FD1FFF74EFD14
:100B50008CE73B6A180000F09BF900F049FC85E740
:100B60003B6A180000F094F900F042FC00231800E2
:100B7000BD460AB080BD80B588B000AFF860B960EE
:100B80007A603B60FB68BB61FFF7ACFE03007B61F2
:100B9000BB699A6BBB69DB6B9A4202D33B68022B41
:100BA00023D13A68B968BB69180000F0DFF8BB6967
:100BB0009B6C013311D1BB695B6A002B12D0BB69FE
:100BC0002433180000F0E4FD031E0BD07B68002BDB
:100BD00008D07B6801221A6004E0BB699B6C5A1C38
:100BE000BB699A640123FB6101E00023FB617B691F
:100BF0001800FFF78EFEFB691800BD4608B080BDE7
:100C000080B58AB000AFF860B9607A603B600023BD
:100C10007B62FB683B62FFF7FDFC3B6A9B6B002B32
:100C20003CD03B6ADB68FB61BA683B6A1100180084
:100C300000F008F93B68002B1CD13B6A9B6B5A1EE5
:100C40003B6A9A633B6A1B68002B04D101F0AEF843
:100C500002003B6A5A603B6A1B69002B1AD03B6A50
:100C60001033180000F094FD0300012B12D1FFF7A0
:100C7000BDFC0FE03B6AFA69DA603B6A5B6A002BF5
:100C800008D03B6A2433180000F082FD031E01D017
:100C9000FFF7ACFCFFF7CCFC012363E07B68002B83
:100CA00003D1FFF7C5FC00235CE07B6A002B06D173
:100CB0001423FB18180000F0C3FD01237B62FFF72B
:100CC000B7FC00F089FBFFF7A5FC3B6A5B6C0133C6
:100CD00002D13B6A00225A643B6A9B6C013302D109
:100CE0003B6A00229A64FFF7A3FC3A1D1423FB1809
:100CF0001100180000F0B8FD031E2CD13B6A18004B
:100D000000F010F9031E1FD03B6A1B68002B08D1AE
:100D1000FFF780FC3B6A5B68180000F09DFFFFF75F
:100D200087FC3B6A24337A681100180000F0D6FC77
:100D30003B6A180000F0ACF800F05AFB031E00D02C
:100D400069E7FFF753FC66E73B6A180000F0A0F87C
:100D500000F04EFB5FE73B6A180000F099F800F0E6
:100D600047FB00231800BD460AB080BD80B586B0A1
:100D700000AFF860B9607A6000237B61FB681B6C90
:100D8000002B0ED1FB681B68002B51D1FB685B6800
:100D9000180000F0BFFF03007B61FB6800225A606F
:100DA00046E07B68002B19D1FB689868FB681A6CD9
:100DB000BB68190003F07EFAFB689A68FB681B6C3D
:100DC000D218FB689A60FB689A68FB685B689A4275
:100DD0002ED3FB681A68FB689A6029E0FB68D86824
:100DE000FB681A6CBB68190003F064FAFB68DA68E8
:100DF000FB681B6C5B42D218FB68DA60FB68DA6840
:100E0000FB681B689A4207D2FB685A68FB681B6C38
:100E10005B42D218FB68DA607B68022B08D1FB6862
:100E20009B6B002B04D0FB689B6B5A1EFB689A637C
:100E3000FB689B6B5A1CFB689A637B691800BD4674
:100E400006B080BD80B582B000AF786039607B6845
:100E50001B6C002B18D07B68DA687B681B6CD2187F
:100E60007B68DA607B68DA687B685B689A4203D3E8
:100E70007B681A687B68DA607B68D9687B681A6C63
:100E80003B68180003F016FAC046BD4602B080BDAC
:100E900080B582B000AF7860FFF7BCFB11E07B68E3
:100EA0005B6A002B12D07B682433180000F070FCC2
:100EB000031E01D000F01CFD7B689B6C5A1E7B68F2
:100EC0009A647B689B6C002BE9DC00E0C0467B6881
:100ED000012252429A64FFF7ABFBFFF79BFB11E044
:100EE0007B681B69002B12D07B681033180000F060
:100EF0004FFC031E01D000F0FBFC7B685B6C5A1EAC
:100F00007B685A647B685B6C002BE9DC00E0C046C0
:100F10007B68012252425A64FFF78AFBC046BD46F5
:100F200002B080BD80B584B000AF7860FFF772FB7F
:100F30007B689B6B002B02D10123FB6001E0002347
:100F4000FB60FFF775FBFB681800BD4604B080BD71
:100F500080B584B000AF7860FFF75CFB7B689A6B6C
:100F60007B68DB6B9A4202D10123FB6001E0002326
:100F7000FB60FFF75DFBFB681800BD4604B080BD59
:100F800080B584B000AF786039600023FB6015E065
:100F90000E4BFA68D200D358002B0CD10B4BFA68D9
:100FA000D2003968D150094AFB68DB00D3180433FA
:100FB0007A681A6006E0FB680133FB60FB68012B6E
:100FC000E6D9C046C046BD4604B080BDFC1900202D
:100FD00080B584B000AF786039607B68FB60FFF754
:100FE00019FBFB685B6C013302D1FB6800225A6479
:100FF000FB689B6C013302D1FB6800229A64FFF707
:1010000017FBFB689B6B002B06D1FB6824333A6807
:101010001100180000F096FBFB681800FFF738FF7E
:10102000C046BD4604B080BD80B500AF72B6C046B4
:10103000C046BD4680BD000090B58BB002AFF860E1
:10104000B9603B60BB1D1A80BA6BBB1D1B881100C9
:10105000180000F075FD0300BB61BB69002B6AD06E
:10106000BB691A6BBB1D1B883E498C4663449B00C1
:10107000D3187B617B69072293437B61FC6B3A6BDE
:10108000B968B869BB1D1B880093230000F04AFCB7
:101090003A68F9687B691800FFF756FA0200BB69E5
:1010A0001A607B6B002B02D07B6BBA691A60FFF76A
:1010B000B1FA2D4B1B685A1C2B4B1A602B4B1B682B
:1010C000002B09D1294BBA691A60274B1B68012BE9
:1010D0000FD100F07FFC0CE0254B1B68002B08D1E2
:1010E000224B1B68DB6A3A6B9A4202D31F4BBA69E8
:1010F0001A60204B1B685A1C1E4B1A60BB69DA6AC7
:101100001D4B1B689A4203D9BB69DA6A1A4B1A60F5
:10111000BB69DA6A13009B009B189B00174A9A1858
:10112000BB69043319001000FFF7A5F80123FB6128
:10113000FFF77EFA02E001235B42FB61FB69012BB2
:101140000BD10B4B1B68002B07D0084B1B68DB6ACD
:101150003A6B9A4201D9FFF749FAFB691800BD467C
:1011600009B090BDFFFFFF3F241500207014002040
:1011700030150020401500202C150020741400208C
:1011800080B584B000AF78600023FB607B68002BE3
:1011900014D000F021F90E4B1B687A68D318BB609D
:1011A0000C4B1B6804331800FFF7BDF8BB68180030
:1011B00000F090FC00F01CF90300FB60FB68002BC2
:1011C00001D1FFF713FAC046BD4604B080BDC0464A
:1011D000281500207014002080B584B000AF78601E
:1011E000FFF718FA7B68002B02D1214B1B6800E047
:1011F0007B68FB60FB6804331800FFF794F8FB681A
:101200009B6A002B04D0FB6818331800FFF78BF89B
:10121000FB681A1D174B11001800FFF72CF8FFF799
:1012200007FA134B1B68FA689A4213D1124B1B68DA
:10123000002B02D0FFF7DAF916E00E4B1A680F4BBD
:101240001B689A4203D10A4B00221A600CE000F09E
:10125000FBF909E0084B1B68002B05D0FFF7DAF912
:1012600000F0BAFCFFF7E4F9C046BD4604B080BD0B
:10127000701400200C1500203015002024150020CB
:1012800080B584B000AF78600023FB607B68BB60F2
:10129000BB685A690E4B9A4201D1012300E000233A
:1012A000002B0FD0BB689A6A0A4B9A420AD0BB68DF
:1012B0009B6A002B01D1012300E00023002B01D009
:1012C0000123FB60FB681800BD4604B080BDC0462A
:1012D0000C150020E014002080B584B000AF7860C9
:1012E0007B68FB60FB68002B35D01D4B1B68FA68E0
:1012F0009A4230D0FFF78EF9FB681800FFF7C0FF65
:101300000300012B25D1FB6804331800FFF70BF80D
:10131000FB68DA6A134B1B689A4203D9FB68DA6AE6
:10132000104B1A60FB68DA6A13009B009B189B0045
:101330000D4A9A18FB68043319001000FEF79BFF52
:10134000FB68DA6A064B1B68DB6A9A4201D3FFF737
:101350004DF9FFF76DF9C046BD4604B080BDC046EB
:10136000701400202C1500207414002080B586B065
:1013700004AF144914480023039300230293134B32
:1013800001930023009300233C22FFF755FE030046
:101390007B607B68012B03D100F01AFD03007B60AA
:1013A0007B68012B09D1FFF73FFE094B01221A6030
:1013B000084B00221A60FFF7F9F8C046BD4602B09C
:1013C00080BDC046645500000519000020150020AE
:1013D000301500202815002080B500AF034B1B6896
:1013E0005A1C024B1A60C046BD4680BD4415002001
:1013F00080B582B000AF00237B60FFF70BF9334B61
:101400001B685A1E314B1A60304B1B68002B55D19C
:101410002F4B1B68002B51D02FE02E4BDB68DB6875
:101420003B603B6818331800FEF77DFF3B680433D0
:101430001800FEF778FF3B68DA6A274B1B689A4270
:1014400003D93B68DA6A244B1A603B68DA6A1300F6
:101450009B009B189B00214A9A183B680433190093
:101460001000FEF708FF3B68DA6A1D4B1B68DB6A59
:101470009A4202D31B4B01221A60164B1B68002BA9
:10148000CBD1194B1B68002B10D00BE000F03CF8BF
:10149000031E02D0134B01221A60134B1B685A1E05
:1014A000114B1A60104B1B68002BEFD10D4B1B68C2
:1014B000012B03D101237B60FFF798F8FFF7B8F801
:1014C0007B681800BD4602B080BDC04644150020B0
:1014D00024150020E01400202C1500207414002096
:1014E00070140020381500203415002080B582B01B
:1014F00000AF044B1B687B607B681800BD4602B0E0
:1015000080BDC0462815002080B586B000AF0023FE
:101510007B61424B1B68002B00D06FE0404B1B6887
:101520005A1C3F4B1A603E4B1B683B613B69002BCA
:1015300010D13C4B1B68FB603B4B1A68394B1A605F
:10154000394BFA681A60394B1B685A1C374B1A60C2
:1015500000F042FB364B1B683A699A4253D3314B39
:101560001B681B68002B01D1012300E00023002B26
:1015700004D02F4B012252421A6044E0294B1B68D1
:10158000DB68DB68BB60BB685B687B603A697B6873
:101590009A4203D2264B7A681A6034E0BB6804335F
:1015A0001800FEF7C0FEBB689B6A002B04D0BB6826
:1015B00018331800FEF7B7FEBB68DA6A1D4B1B68CC
:1015C0009A4203D9BB68DA6A1A4B1A60BB68DA6AB6
:1015D00013009B009B189B00174A9A18BB680433A2
:1015E00019001000FEF747FEBB68DA6A134B1B6850
:1015F000DB6A9A42B3D301237B61B0E7104B1B68CF
:101600005A1C0F4B1A600F4B1B68002B01D0012393
:101610007B617B691800BD4606B080BD4415002083
:1016200028150020D8140020DC1400203C150020D0
:10163000000000202C1500207414002070140020DD
:10164000341500203815002080B582B000AF1E4B45
:101650001B68002B03D01D4B01221A6030E01B4B8E
:1016600000221A6004E01A4B1B685A1E184B1A60BD
:10167000174B1A68174913009B009B189B005B5877
:10168000002BF0D0124B1A6813009B009B189B0094
:10169000104A9B187B607B685B685A687B685A605D
:1016A0007B685A687B6808339A4204D17B685B6820
:1016B0005A687B685A607B685B68DA68064B1A6018
:1016C000C046BD4602B080BD44150020381500203C
:1016D0002C150020741400207014002080B584B0F4
:1016E00000AF78603960144B1B6818331A007B68B0
:1016F00011001800FEF7E1FD0F4B1B6804331800C2
:10170000FEF711FE3B68013308D10B4B1B681A1D15
:101710000A4B11001800FEF7AEFD08E0084B1B68ED
:101720003A68D318FB60FB68180000F0D3F9C04694
:10173000BD4604B080BDC046701400200C150020CA
:101740002815002080B584B000AF786039600E4B5A
:101750001B6818331A007B6811001800FEF78BFD18
:10176000094B1B6804331800FEF7DDFD074B1B68AF
:101770003A68D318FB60FB68180000F0ABF9C0466C
:10178000BD4604B080BDC04670140020281500205E
:1017900080B584B000AF78607B68DB68DB68BB60D5
:1017A000BB6818331800FEF7BEFD1F4B1B68002BEB
:1017B0001DD1BB6804331800FEF7B5FDBB68DA6ABB
:1017C0001A4B1B689A4203D9BB68DA6A174B1A6036
:1017D000BB68DA6A13009B009B189B00144A9A1896
:1017E000BB68043319001000FEF745FD07E0BB6835
:1017F00018331A000F4B11001800FEF73CFDBB68B0
:10180000DA6A0D4B1B68DB6A9A4205D90123FB603B
:101810000A4B01221A6001E00023FB60FB681800FC
:10182000BD4604B080BDC046441500202C150020E4
:1018300074140020E01400207014002038150020DB
:1018400080B582B000AF7860054B1A687B681A607B
:10185000044B1A687B685A60C046BD4602B080BD22
:101860003C1500202815002080B584B000AF7860BA
:101870003960FEF7CFFE1C4B1B68BB603B681B68E2
:10188000013302D10023FB6027E07B681A68174B05
:101890001B689A4207D07B685B68BA689A4202D399
:1018A0000123FB6019E07B685B68BA68D21A3B6869
:1018B0001B689A420FD23B681A687B685968BB68FC
:1018C000CB1AD2183B681A607B681800FFF7B8FF84
:1018D0000023FB6001E00123FB60FEF7A9FEFB682B
:1018E0001800BD4604B080BD281500203C1500201E
:1018F00080B500AF024B01221A60C046BD4680BDD4
:101900003815002080B582B000AF786000F0A6F8EE
:10191000034B1B68012BF9D9FEF768FEF6E7C046BA
:101920007414002080B586B000AFF860B9607A60AA
:101930003B6000237B6115E0BA687B69D318002007
:101940001856FA6834217B69D3185B18021C1A7088
:10195000BA687B69D3181B785BB2002B06D07B6911
:1019600001337B617B69032BE6D900E0C046FB684D
:101970003722002199547B68022B01D902237B6016
:10198000FB687A68DA62FB687A689A63FB6800220F
:10199000DA63FB6804331800FEF762FCFB68183357
:1019A0001800FEF75DFCFB68FA681A617B68032289
:1019B000D21AFB689A61FB68FA685A62FB680022D7
:1019C0001A64FB68442200219954C046BD4606B003
:1019D00080BD000080B582B000AF00237B600CE0CA
:1019E0007A6813009B009B189B00144A9B181800F0
:1019F000FEF718FC7B6801337B607B68022BEFD914
:101A00000F4B1800FEF70EFC0E4B1800FEF70AFCF9
:101A10000D4B1800FEF706FC0C4B1800FEF702FCFD
:101A20000B4B1800FEF7FEFB0A4B054A1A600A4BE7
:101A3000044A1A60C046BD4602B080BD741400203E
:101A4000B0140020C4140020E0140020F41400207E
:101A50000C150020D8140020DC14002080B582B0C2
:101A600000AF27E0FFF7B8FC174B1B685A42534101
:101A7000DBB27B60FFF7BCFC7B68002B1AD1FEF762
:101A8000C9FD114BDB68DB683B603B680433180021
:101A9000FEF749FC0D4B1B685A1E0C4B1A600C4B91
:101AA0001B685A1E0A4B1A60FEF7C2FD3B681800FD
:101AB00000F081F8064B1B68002BD3D1C046C0460E
:101AC000BD4602B080BDC046F4140020241500209D
:101AD0000815002080B582B000AF7860134B1B68FA
:101AE0007A685A60124B1B687A689A4209D2114B85
:101AF0001A680E4B1B68043319001000FEF7DDFB5B
:101B000010E00D4B1A68094B1B68043319001000D4
:101B1000FEF7D3FB094B1B687A689A4202D2074B47
:101B20007A681A60C046BD4602B080BD70140020BD
:101B300028150020DC140020D8140020000000200C
:101B400080B584B000AF02003960BB1D1A803B68CD
:101B5000002B07D1BB1D1B889B001800FEF714FB50
:101B6000030000E03B68BB60BB68002B10D048203E
:101B7000FEF70AFB0300FB60FB68002B03D0FB6849
:101B8000BA681A6306E0BB681800FEF743FB01E081
:101B90000023FB60FB68002B08D0FB68186BBB1DA3
:101BA0001B889B001A00A52102F0D6FBFB681800D9
:101BB000BD4604B080BD80B582B000AF78607B6860
:101BC0001B6B1800FEF726FB7B681800FEF722FB54
:101BD000C046BD4602B080BD80B582B000AF0E4B9E
:101BE0001B681B68002B01D1012300E00023002BA0
:101BF00004D00A4B012252421A6008E0064B1B68CF
:101C0000DB68DB687B607B685A68044B1A60C046FF
:101C1000BD4602B080BDC046D814002000000020A0
:101C200080B582B000AF0A4B1B68002B02D10123A4
:101C30007B6008E0074B1B68002B02D102237B600E
:101C400001E000237B607B681800BD4602B080BDC8
:101C5000301500204415002080B584B000AF7860B6
:101C60007B68FB607B68002B4AD0FB68DA6A264BF6
:101C70001B68DB6A9A4243D2FB689B69002B06DB38
:101C8000214B1B68DB6A0322D21AFB689A61FB684E
:101C90005969FB68DA6A13009B009B189B001B4A7A
:101CA0009B18994201D1012300E00023002B22D090
:101CB000FB6804331800FEF736FB134B1B68DA6A27
:101CC000FB68DA62FB68DA6A114B1B689A4203D937
:101CD000FB68DA6A0E4B1A60FB68DA6A13009B0035
:101CE0009B189B00094A9A18FB68043319001000DE
:101CF000FEF7C1FA04E0044B1B68DA6AFB68DA629B
:101D0000C046BD4604B080BD70140020741400208D
:101D10002C15002080B584B000AF78607B68BB6074
:101D20000023FB607B68002B37D0BB68DB6B5A1E3F
:101D3000BB68DA63BB68DA6ABB689B6B9A422CD0DB
:101D4000BB68DB6B002B28D1BB6804331800FEF79F
:101D5000EAFABB689A6BBB68DA62BB68DB6A03228B
:101D6000D21ABB689A61BB68DA6A0E4B1B689A424A
:101D700003D9BB68DA6A0B4B1A60BB68DA6A1300D6
:101D80009B009B189B00084A9A18BB6804331900F3
:101D90001000FEF770FA0123FB60FB681800BD46D7
:101DA00004B080BD2C1500207414002080B500AF55
:101DB000064B1B68002B04D0044B1B68DA6B013206
:101DC000DA63024B1B681800BD4680BD701400200A
:101DD00080B586B004AF00237B6000F073FA0C4B33
:101DE0001B68002B0FD00B490B48002303930023E3
:101DF00002930A4B01930223009300235022FFF722
:101E00001BF903007B607B681800BD4602B080BDF3
:101E1000781500206C550000751F00007C1500200F
:101E200080B586B000AFF860B9607A603B60BB688F
:101E3000002B02D100237B611DE02820FEF7A4F9CE
:101E400003007B617B69002B15D000F03BFA7B69B6
:101E5000FA681A607B69BA689A617B697A68DA61A4
:101E60007B693A681A627B693A6A5A627B69043311
:101E70001800FEF7F5F97B691800BD4606B080BD75
:101E800090B58BB000AFF860B9607A603B6000231A
:101E90007B621D4B1B68002B30D014243B19BA68A1
:101EA0001A603B197A685A603B19FA689A60BB68F5
:101EB000052B19DCFFF7B4FE0300022B09D1124BEE
:101EC0001868BA6B39190023FEF7C5FD03007B6261
:101ED00014E00D4B18681423F91800230022FEF7B4
:101EE000BAFD03007B6209E0074B18683A681423C7
:101EF000F9180023FEF73FFE03007B627B6A18009F
:101F0000BD460BB090BDC0467815002080B586B0A8
:101F100002AF78603960164B1B68DB68DB68FB60DA
:101F2000FB6804331800FEF7FEF9FB68DB69012B40
:101F300015D1FB689A697B68D1187B683A68F868A4
:101F400000F0A4F80300012B09D17A68F868002397
:101F5000009300230021FFF793FF0300BB60FB68A1
:101F60005B6AFA6810009847C046BD4604B080BD61
:101F70007015002080B584B000AF78600823FB188E
:101F8000180000F043F80300FB60BA68FB6811001A
:101F9000180000F003F800F0BBF8EFE780B584B05C
:101FA00000AF78603960FFF717FA0823FB181800B4
:101FB00000F04CF80300FB60BB68002B1ED13B68AF
:101FC000002B0CD17A68FB689A4208D8FFF710FA08
:101FD000FA687B6811001800FFF798FF10E00A4BC1
:101FE00018687A68FB68D31A1900FEF7F1FFFFF74B
:101FF000FFF9031E04D1FEF7F9FA01E0FFF7F8F943
:10200000C046BD4604B080BD7815002080B584B0C0
:1020100000AF78600C4B1B681B685A425341DBB21F
:102020001A007B681A607B681B68002B05D1064B81
:102030001B68DB681B68FB6001E00023FB60FB683A
:102040001800BD4604B080BD7015002080B584B076
:1020500000AF7860FFF74AFA0300FB600A4B1B6889
:10206000FA689A4205D200F0D7F87B6801221A601C
:1020700002E07B6800221A60034BFA681A60FB6872
:102080001800BD4604B080BD8015002080B586B024
:1020900000AFF860B9607A603B6000237B61FB6849
:1020A000BA685A60FB68FA681A61BA687B689A4233
:1020B00012D87A683B68D21AFB689B699A4202D3AD
:1020C00001237B611BE0104B1A68FB680433190085
:1020D0001000FEF7F2F812E07A683B689A4206D2E6
:1020E000BA683B689A4202D301237B6107E0074B41
:1020F0001A68FB68043319001000FEF7DEF87B69EC
:102100001800BD4606B080BD741500207015002073
:1021100090B58DB002AF6CE00822BB181B68002B95
:102120000ADABB1804337B627B6A1A687B6A5868D8
:102130007B6A9B68190090470822BB181B68002B1C
:1021400056DBBB189B683B623B6A5B69002B04D083
:102150003B6A04331800FEF7E6F83B1D1800FFF752
:1021600075FF0300FB610823FB181B68092B40D88F
:102170009A00274BD3181B689F4608243B195A68BE
:102180003B6A9B69D1183B195B68FA69386AFFF7AB
:102190007DFF0300012B2CD13B6A5B6A3A6A100079
:1021A00098473B6ADB69012B23D13B195A683B6A8C
:1021B0009B69D218386A0023009300230021FFF79F
:1021C0005FFE0300BB6114E00823FB185A683B6AFA
:1021D0009A613B6A9A69FB69D118FB69FA69386AA6
:1021E000FFF754FF05E03B6A1800FEF713F800E024
:1021F000C046084B18680823F91800230022FEF790
:10220000FFFC031E88D1C046C046BD460BB090BD42
:102210007C5500007815002080B588B002AF39E009
:10222000264B1B68DB681B683B61244B1B68DB6823
:10223000DB68FB60FB6804331800FEF774F8FB688A
:102240005B6AFA6810009847FB68DB69012B21D1B3
:10225000FB689B693A69D318BB60BA683B699A42CC
:102260000ED9FB68BA685A60FB68FA681A61134BAA
:102270001A68FB68043319001000FEF71EF809E025
:102280003A69F8680023009300230021FFF7F8FD66
:1022900003007B60094B1B681B68002BC0D1074BF8
:1022A0001B687B61064B1A68044B1A60044B7A6901
:1022B0001A60C046BD4606B080BDC04670150020FD
:1022C0007415002080B500AFFEF7A4F9144B1B680D
:1022D000002B20D1134B1800FDF7A4FF124B180060
:1022E000FDF7A0FF114B0F4A1A60114B0E4A1A60FE
:1022F000002210212020FEF770FB0200084B1A601C
:10230000074B1B68002B06D0054B1B68094A1100C0
:102310001800FEF735FEFEF78BF9C046BD4680BDBE
:1023200078150020481500205C150020701500204D
:10233000741500207455000080B500AFBFF34F8FB7
:10234000C046034B034ADA60BFF34F8FC046FEE737
:1023500000ED00E00400FA0580B584B000AFF8603D
:10236000B9607A60FFF7E8FFC046BD4604B080BDA3
:1023700080B584B000AF78607B689B68FB607B6849
:10238000DA68FB68D31A1800BD4604B080BD80B57A
:1023900084B000AFF860B960BB1D1A80BB68002B29
:1023A00001D10E231CE0BB1D1B88002B06D0BB1DDA
:1023B0001B88013BBA1D1288134001D009230FE08E
:1023C000FB68BA681A60BB1D1B88013B9AB2FB68A8
:1023D0009A80FB6800229A60FB680022DA60002382
:1023E0001800BD4604B080BD80B582B000AF7860F3
:1023F0000A00FB1C1A707B681800FFF7B9FF020087
:102400007B689B889A4211D87B681A687B68DB6876
:10241000796889880B40D318FA1C12781A707B6887
:10242000DB685A1C7B68DA60002300E00423180094
:10243000BD4602B080BD80B582B000AF7860396023
:102440007B681800FFF794FF031E11D07B681A68A1
:102450007B689B68796889880B40D3181A783B6839
:102460001A707B689B685A1C7B689A60002300E0A6
:1024700005231800BD4602B080BD80B582B000AF14
:1024800078607B68DA687B689A6000231800BD4634
:1024900002B080BD80B582B000AF0200FB1D1A7093
:1024A000FB1D1B781A001F23134001229A40034B87
:1024B0001A60C046BD4602B080BDC04600E100E0E3
:1024C00080B582B000AF0200FB1D1A70FB1D1B78A7
:1024D0001A001F23134001229A401300044A1900D6
:1024E000C0235B00D150C046BD4602B080BDC0468F
:1024F00000E100E090B583B000AF02003960FB1D41
:102500001A70FB1D1B787F2B32D92F4AFB1D1B78BD
:1025100019000F230B40083B9B0806339B00D31880
:1025200004331B68FA1D1278110003220A40D200FE
:10253000FF2191400A00D2431A4011003B689B01E1
:10254000FF221A40FB1D1B78180003230340DB0009
:102550009A401D48FB1D1B781C000F232340083B9D
:102560009B080A4306339B00C31804331A6027E014
:10257000164AFB1D1B785BB29B08C0339B009B581F
:10258000FA1D1278110003220A40D200FF21914067
:102590000A00D2431A4011003B689B01FF221A40F7
:1025A000FB1D1B78180003230340DB009A400748FB
:1025B000FB1D1B785BB29B080A43C0339B001A507B
:1025C000C046BD4603B090BD00ED00E000E100E074
:1025D00080B582B000AF7860A023DB057A68C13295
:1025E000FF3292000321D150C046BD4602B080BDEB
:1025F00080B582B000AF78600A00FB1C1A70FB1C2B
:102600001B789A00A023DB0511007A68C132FF32E3
:102610009200D150C046BD4602B080BD80B584B0A6
:1026200000AF78607B689B68FB607B68DA68FB685A
:10263000D31A1800BD4604B080BD000080B500AFBD
:10264000084B00221A70084B0122DA60064B012267
:102650005A60054AA023DB000021D150C046BD4688
:1026600080BDC046A81500200020004080B582B083
:1026700000AF094B0122DA60084B01221A703B00BF
:1026800003221A70064B1B683A0010009847C04698
:10269000BD4602B080BDC04600200040A815002005
:1026A000A415002080B582B000AF144B1B78DBB2BC
:1026B000022B02D0124B01229A60FA1D114B11001D
:1026C0001800FFF7B8FE031E02D0FFF7CFFF12E09D
:1026D0000B4AC2239B008021D150FB1D1B78084A66
:1026E0001900094BD150054B02221A70044AC1232C
:1026F0009B008021D150BD4602B080BDA8150020AE
:1027000000200040941500201C05000080B500AF9B
:10271000064B1800FFF782FF031E02D0FFF7C2FF2F
:1027200001E0FFF7A3FFC046BD4680BD9415002021
:1027300080B500AF084B1B78DBB2012B02D0022B17
:1027400003D006E0FFF77AFF03E0034B03221A7081
:10275000C046C046BD4680BDA815002080B500AF6C
:10276000114B1B78DBB2002B02D0032B15D018E0E5
:102770000E4AA023DB000421D1500C4B01221A6029
:102780000B4B1800FFF74AFF031E02D0FFF78AFF2A
:1027900007E0054B01221A7003E0034B02221A7076
:1027A000C046C046BD4680BDA815002000200040A0
:1027B0009415002080B500AF094B1B78DBB2022BCB
:1027C00002DC002B05DC07E0032B05D1FFF736FF09
:1027D00003E0FFF79BFF00E0C046C046BD4680BD5A
:1027E000A815002080B500AF044B1B78DBB2012B8D
:1027F00001D1FFF757FFC046BD4680BDA815002098
:1028000080B500AFFFF71AFFC046BD4680BD00008F
:1028100080B582B000AF0200FB1D1A70FB1D1B7853
:10282000042B13D89A000C4BD3181B689F46FFF754
:102830007FFF0CE0FFF792FF09E0FFF7BBFF06E028
:10284000FFF7D0FF03E0FFF7DBFF00E0C046C04624
:10285000BD4602B080BDC046A455000080B582B020
:1028600000AF78600A00FB1C1A707B68180001F04A
:102870006BFB031E03D00020FFF7CAFF02E001201C
:10288000FFF7C6FFC046BD4602B080BD80B588B028
:1028900000AF344A84235B00D358002B2FD0314A39
:1028A00084235B000021D1502E4AA323DB00D358A0
:1028B000DAB22D4B11001800FFF796FD0300FB6103
:1028C000FB69002B0CD010217B1801221A707B1899
:1028D000FA695A60254B1B687A18100098470EE079
:1028E000214B1800FFF79AFE031E08D008217B1821
:1028F00000221A701D4B1B687A1810009847194A5D
:102900008E235B00D358002B07D0164A8E235B0022
:102910000021D1500320FFF77BFF124A92235B0076
:10292000D358002B19D00F4A92235B000021D150BD
:102930000C4A9023DB00D358BB610A499023DB008B
:10294000BA69CA503B0002221A703B00BA695A6049
:10295000064B1B683A0010009847C046BD4608B0B9
:1029600080BDC0460020004084150020A415002032
:1029700080B500AF154AA023DB000421D150134AD3
:1029800084235B000021D150104A8E235B0000217C
:10299000D1500E4A0E4BD3580C49012293430C4A96
:1029A0008B500A49A123DB0001225242CA50074939
:1029B000A223DB0001225242CA50044B01229A603A
:1029C000024B01221A60C046BD4680BD0020004077
:1029D0006C05000080B582B000AF7860174AA02374
:1029E000DB000421D150154A84235B000021D15023
:1029F000124A8E235B000021D150104A104BD3584D
:102A00000E49012213430E4A8B507B68DB780B4A38
:102A10001900A223DB00D1507B689B78074A19007C
:102A2000A123DB00D150054B01229A60034B012208
:102A30001A60C046BD4602B080BDC04600200040BE
:102A40006C05000090B589B000AFF860B9607A609D
:102A50001A00FB1C1A70834B00221A70824B7A6892
:102A60001A60BB68002B01D10723F7E0BB68196827
:102A7000BB685B689AB27D4B1800FFF788FC0300C7
:102A8000FB61FB69002B01D0FB69E7E0BB6899683B
:102A9000BB68DB689AB2764B1800FFF778FC03003E
:102AA000FB61FB69002B01D0FB69D7E0FB685B7819
:102AB0001800FFF78DFDFB681B7800211800FFF759
:102AC00097FDFB685B786B4A19006B4BD150FB6834
:102AD0001B78684A1900694BD1506649FB689B68AE
:102AE000674A8B50FB685B79002B04D0614A654BC9
:102AF0000E21D15003E05F4A624B0021D150FB68A8
:102B00001B79022B00D072E001F0EAF803001A00F2
:102B100001235340DBB2002B08D001F0A1F80300E1
:102B2000FB61FB69002B01D0FB6997E018243B197E
:102B3000180003231A00002101F00EFC21007B186D
:102B400001225A70FB689B781A007B18190010004C
:102B500001F0D2F80300FB61FB69002B01D0FB6997
:102B60007CE04449A223DB0001225242CA50FB68A8
:102B70009B78404A1900A123DB00D1503D4A414BCC
:102B8000D3583C49012213433E4A8B5014217B18F1
:102B900003221A707B1800225A707B1800229A7048
:102BA0007B180022DA70FB68DB781800364A7B1845
:102BB000190001F0EFF80300FB61FB69002B01D065
:102BC000FB694BE0FB68DB780121180001F048F954
:102BD000FB68DB78180001F0B7F9031E03D0002072
:102BE000FFF716FE14E00120FFF712FE10E0FB686D
:102BF0001B79012B07D1FB681800FFF7EBFE194B7F
:102C000001221A7004E0FFF7B3FE164B01221A707E
:102C10003B6B1B88002B08D11C4B1B785A1CD1B274
:102C20001A4A11709AB23B6B1A801249C2239B0058
:102C300001225242CA500F49C1239B00A122920097
:102C4000CA500220FFF73CFCFB1C1B781900022035
:102C5000FFF750FC0220FFF71DFC00231800BD46C3
:102C600009B090BDA8150020A415002084150020EF
:102C700094150020002000400C0500001405000001
:102C8000240500006C0500005D2800000400002001
:102C900080B582B000AF78607A68054B11001800EB
:102CA000FFF7C9FB03001800BD4602B080BDC04657
:102CB0008415002080B584B000AF0200FB1D1A709F
:102CC000FB1D1A78074B11001800FFF78DFB03005E
:102CD000FB600220FFF79CFDFB681800BD4604B0B6
:102CE00080BDC0469415002080B582B000AF0D4B6A
:102CF0001800FFF7C2FB03007B607B68002B01D04C
:102D00007B680BE0084B1800FFF7B7FB03007B6004
:102D10007B68002B01D07B6800E000231800BD46D3
:102D200002B080BD841500209415002080B500AF4E
:102D3000034B1800FFF772FC03001800BD4680BD6E
:102D40008415002080B582B000AF78607B681B7866
:102D5000022B07D17B685B68002200211800FFF777
:102D6000FBFA11E07B681B78012B0DD17B685B6857
:102D7000042B02D1FFF7B8FF06E07B685B680022F6
:102D800000211800FFF7E8FAC046BD4602B080BD3A
:102D9000B0B58CB002AF14203B18184A32CA32C307
:102DA00012243B1900221A803B00154A1A603B008E
:102DB00008225A603B00134A9A603B008022D200EE
:102DC000DA60114A390038183B1900930323FFF7E2
:102DD00039FE03007B627B6A3B623B6A002B05D0B5
:102DE0003B6A002200211800FFF7B6FA074B0122C8
:102DF0001A70C046BD460AB0B0BDC046B855000006
:102E0000AC150020B4150020452D0000A9150020A8
:102E100080B500AF044B1B78012B02D10C2000F0D1
:102E200061F8C046BD4680BDA915002080B500AF41
:102E3000FFF75AFFC046BD4680BD000080B582B096
:102E400000AF7860094B1B78012B0BD106E07B6843
:102E50005A1C7A601B781800FFF72CFF7B681B78E0
:102E6000002BF4D1C046BD4602B080BDA91500209C
:102E700080B582B000AF78600B4B1B78012B0FD16F
:102E800006E07B685A1C7A601B781800FFF712FF77
:102E90007B681B78002BF4D1044B1800FFF7CEFFA2
:102EA000C046BD4602B080BDA9150020C455000033
:102EB00080B500AF054B1B78012B03D1044B1800E4
:102EC000FFF7BCFFC046BD4680BDC046A915002027
:102ED000C455000080B500AFFFF728FF03001800BD
:102EE000BD4680BD80B582B000AF0200FB1D1A70E8
:102EF000064B1B78012B04D1FB1D1B781800FFF734
:102F0000D9FEC046BD4602B080BDC046A91500200E
:102F100080B582B000AFFB1D00221A70064B1B78F3
:102F2000012B03D1FB1D1800FFF7B2FEFB1D1B7820
:102F30001800BD4602B080BDA915002003210A4833
:102F400002680A430260094802680A4302600849AD
:102F5000084A094B9B1A03DD043BC858D050FBDCE0
:102F600001F0F0F8FDF7D6F82405004054050040C4
:102F7000C85A00000000002048040020FEE7FEE7D9
:102F8000FEE7FEE7FEE7FEE7B0B586B002AF786089
:102F9000FFF7FEFE514B1800FFF76AFF504B1C680D
:102FA000FEF7A4FA02000023009300230121200071
:102FB000FEF766FF05E0FFF7ABFF03001800FFF721
:102FC00091FFFFF787FF0300012BF4D8FFF782FF83
:102FD0000300012B00D07CE00D257C19FFF798FF42
:102FE000030023707B191B781800FFF77BFFFFF7A6
:102FF0005FFF7B191B78313B042B55D89A00394B66
:10300000D3181B689F46384B1800FFF731FF4FE07D
:10301000364B1800FFF72CFF4AE0354B1800FFF73E
:1030200027FF45E0334B1800FFF722FF0F23FB1863
:1030300000221A7011E00F243B191A7813009B002C
:103040009B18DA00D21A2C4BD3181800FFF710FF88
:103050003B191A783B1901321A700F23FB181B78A1
:103060000D2BE8D924E0254B1800FFF701FF0E23B4
:10307000FB1800221A7011E00E243B191A78130075
:103080005B009B18DA00D21A1D4BD3181800FFF70B
:10309000EFFE3B191A783B1901321A700E23FB1808
:1030A0001B78092BE8D903E0164B1800FFF7E0FE68
:1030B0000B4B1C68FEF71AFA02000523009300234D
:1030C00002212000FEF7DCFE0F4B1B681800FEF704
:1030D00083F86420FEF754F873E7C0468C5800006C
:1030E0000C1A00205C590000A8580000B8580000D5
:1030F000D0580000DC580000CC550000EC5800000F
:10310000B857000008590000101A002080B582B09E
:1031100000AF7860FFF77CFEFFF788FE064B1800D3
:10312000FFF78CFE054B1B681800FEF7D5F8C0466C
:10313000BD4602B080BDC04620590000101A0020D4
:1031400080B586B004AF00F0FDFF002000F06CF900
:1031500003007B607B683B603B68002B05D03B68CD
:10316000002200211800FFF7F7F882235A001149C6
:1031700011480023039300230293104B0193022371
:1031800000930023FDF758FFFA23D9000C480D4B9C
:10319000009300230022FEF743FE02000A4B1A6050
:1031A0000A4B1A69094B04210A431A61FEF7DEF83B
:1031B000FEE7C04640590000892F0000101A002089
:1031C0004C5900000D3100000C1A002000ED00E009
:1031D00080B582B000AF78608023DA05C1239B0000
:1031E0007968D150C046BD4602B080BD80B582B07E
:1031F00000AF0200FB1D1A70FB1D1B788022D20558
:103200009446634401221A60C046BD4602B080BDA8
:1032100080B582B000AF0200BB1D1A80BB1D1B88A9
:103220008022D2059446634400221A60C046BD46FF
:1032300002B080BD80B582B000AF0200FB1D1A70E5
:10324000FB1D1B788022D20503211940A323DB003C
:10325000D150C046BD4602B080BD80B500AF8023CE
:10326000DA058323DB00D3581B0C012213405A1EBE
:103270009341DBB21800BD4680BD000080B500AFB1
:103280008023DB05044A9B58DBB201221340DBB2EA
:103290001800BD4680BDC0461404000080B500AFD4
:1032A0008023DB05044A9B58DBB201221340DBB2CA
:1032B0001800BD4680BDC0460C04000080B500AFBC
:1032C0008023DA058123DB00D358DBB201221340CF
:1032D000DBB21800BD4680BD80B582B000AF0200F1
:1032E000FB1D1A708023DA05FB1D1978AA23DB0069
:1032F000D150C046BD4602B080BD80B500AF80232E
:103300005B001800FFF784FF0020FFF76FFFC04647
:10331000BD4680BD80B500AF0420FFF767FFC04603
:10332000FFF7BCFF0300012BFAD0C046C046BD46E4
:1033300080BD80B500AF82235B001800FFF768FFF7
:103340000820FFF753FFC046BD4680BD80B500AFE3
:103350000C20FFF74BFFC046FFF77FFF031EFBD19A
:10336000C046C046BD4680BD80B500AF104B9B68CF
:10337000002B0FD0FFF771FF03001A000123534009
:10338000DBB2002B11D0FFF779FF031E0DD1FFF741
:10339000D0FF0AE0FFF761FF031E04D1FFF76EFFC5
:1033A0000300012B01D1FFF7D1FFC046BD4680BD10
:1033B000B419002090B585B000AF0200FB1D1A7053
:1033C0000F243B1900221A70164B5B68002B15D096
:1033D000FFF764FF0300012B1CD0FFF76FFF031EF4
:1033E00018D13B1901221A70FB1D1B78002B02D04B
:1033F0000120FFF7EDFEFFF780FF0BE0FFF74EFF28
:103400000300012B04D0FFF759FF0300012B01D16A
:10341000FFF780FF0F23FB181B781800BD4605B08F
:1034200090BDC046B419002080B584B000AF78606C
:103430000023FB60104B1B7801225340DBB2002BB2
:103440000CD00D4B00225A600B4B00229A60FF20DB
:10345000FFF742FF0120FFF7EDFE01E08523FB604F
:10346000FB68002B02D1044B01221A70FB68180084
:10347000BD4604B080BDC046B419002080B500AF81
:10348000064B9B685A1C054B9A600020FFF792FF81
:10349000FFF76AFFC046BD4680BDC046B419002094
:1034A00080B582B000AF0200FB1D1A70FB1D1B78B7
:1034B0001A001F23134001229A40034B1A60C04692
:1034C000BD4602B080BDC04600E100E080B582B0DC
:1034D00000AF0200FB1D1A70FB1D1B781A001F2392
:1034E000134001229A401300044A1900C0235B00D4
:1034F000D150C046BD4602B080BDC04600E100E0EC
:1035000090B583B000AF02003960FB1D1A70FB1D3F
:103510001B787F2B32D92F4AFB1D1B7819000F23F4
:103520000B40083B9B0806339B00D31804331B68F1
:10353000FA1D1278110003220A40D200FF219140A7
:103540000A00D2431A4011003B689B01FF221A4037
:10355000FB1D1B78180003230340DB009A401D4825
:10356000FB1D1B781C000F232340083B9B080A43CC
:1035700006339B00C31804331A6027E0164AFB1D6C
:103580001B785BB29B08C0339B009B58FA1D1278D6
:10359000110003220A40D200FF2191400A00D243C9
:1035A0001A4011003B689B01FF221A40FB1D1B784B
:1035B000180003230340DB009A400748FB1D1B78DB
:1035C0005BB29B080A43C0339B001A50C046BD46FD
:1035D00003B090BD00ED00E000E100E080B582B0F6
:1035E00000AF0200FB1D1A70BB1D0A1C1A70BB1D28
:1035F0001A78FB1D1B785BB211001800FFF780FFE3
:10360000FB1D1B785BB21800FFF760FFFB1D1B78EA
:103610005BB21800FFF744FFC046BD4602B080BD54
:1036200080B582B000AF0200BB1D1A80BB1D1B8895
:10363000180000F01DF803001B68013B5A4253417B
:10364000DBB21800BD4602B080BD80B582B000AFCD
:103650000200BB1D1A80BB1D1B88180000F008F873
:10366000030000221A60C046BD4602B080BD0000C3
:1036700080B582B000AF0200BB1D1A80BB1D1B8845
:10368000034A944663441800BD4602B080BDC0465C
:103690000060004080B582B000AF78600449C1236B
:1036A0009B007A68CA50C046BD4602B080BDC04685
:1036B0000060004080B582B000AF7860044AC1234A
:1036C0009B00D3587A6813401800BD4602B080BDF5
:1036D0000060004080B582B000AF7860084A7B6827
:1036E0004533FF339B009B58054901221A437B68F1
:1036F0004533FF339B005A50C046BD4602B080BDE3
:103700000060004080B584B000AFF860B960FB1D78
:103710001A70164AFB684533FF339B009B581349C8
:10372000134A1A40FB684533FF339B005A500F4A37
:10373000FB684533FF339B009A58BB681902F82396
:103740005B011940FB1D1B781B041800C0239B0262
:1037500003400B4305491A43FB684533FF339B0085
:103760005A50C046BD4604B080BDC046006000400F
:10377000FFE0FCFF80B582B000AF7860064A7B684E
:103780004533FF339B009B581B0A1F221340180030
:10379000BD4602B080BDC0460060004080B582B02A
:1037A00000AF7860064A7B684533FF339B009B5827
:1037B0001B0C03221340DBB21800BD4602B080BDD3
:1037C0000060004080B584B000AFF860B9601900B7
:1037D000FB1D1A70BB1D0A1C1A701A4AFB68453380
:1037E000FF339B009B581749174A1A40FB68453323
:1037F000FF339B005A50134AFB684533FF339B004D
:103800009A58BB681902F8235B011940FB1D1B780D
:103810001B041800C0239B0203401943BB1D1B78E7
:103820001B05180080235B0303400B4305491A4323
:10383000FB684533FF339B005A50C046BD4604B079
:1038400080BDC04600600040FFE0ECFF80B582B064
:1038500000AF7860A023DB057A68C132FF329200A6
:103860000321D150C046BD4602B080BD80B582B0B4
:1038700000AF78600A00FB1C1A70FB1C1B789A00D2
:10388000A023DB0511007A68C132FF329200D150CB
:10389000C046BD4602B080BD80B584B000AF786040
:1038A000A023DB057A68C132FF329200D35802228E
:1038B0009343FB60A023DB057A68C132FF3292009C
:1038C000F968D150C046BD4604B080BD80B582B015
:1038D00000AF78600A00FB1C1A70A023DB057A6831
:1038E000C132FF329200D258A023DB050E491140AD
:1038F0007A68C132FF329200D150A023DB057A688A
:10390000C132FF329200D258FB1C1B781B041900F5
:10391000A023DB0511437A68C132FF329200D150F7
:10392000C046BD4602B080BDFFFFFCFF80B582B03F
:1039300000AF7860A023DA0501217B689940A123BC
:10394000DB00D150C046BD4602B080BD80B582B01C
:1039500000AF7860A023DB0501217A6891400A005E
:1039600002495A50C046BD4602B080BD0C05000059
:1039700080B582B000AF7860A023DA05A223DB0017
:10398000D2587B68DA401300012213401800BD466C
:1039900002B080BD80B500AFA023DA05A223DB0012
:1039A000D3581800BD4680BD80B582B000AF7860A6
:1039B000A023DB057A68C132FF329200D3581B0C7A
:1039C00003221340DBB21800BD4602B080BD0000E8
:1039D00080B582B000AF7860064A7B68D318183390
:1039E0001B785BB201335A1E9341DBB21800BD460F
:1039F00002B080BDC019002080B582B000AF7860F1
:103A00000D4A7B68D31818331B785BB2002B09DB97
:103A1000094A7B68D31818331B785BB2032B01DC8F
:103A2000012300E000231A1C01231340DBB218001D
:103A3000BD4602B080BDC046C019002080B582B02E
:103A400000AF7860074A7B68D31818331B785BB2E5
:103A50000122032B01DC00231A1CD3B21800BD463F
:103A600002B080BDC019002080B582B000AF786080
:103A7000064A7B68D31818331B785BB2DB43DBB292
:103A8000DB09DBB21800BD4602B080BDC0190020C2
:103A900080B584B000AFF860B9607A601A00FB1C92
:103AA0001A70BB6859B2114AFB68D31818330A1C44
:103AB0001A700E4ABB689B00D31804337A681A60E8
:103AC000FB1C1B7801225340DBB2002B09D0BB68E2
:103AD000043BFA6850B2054A3821D3185B18021C1F
:103AE0001A70C046BD4604B080BDC046C019002053
:103AF00080B582B000AF7860044A7B68D318183371
:103B0000FE221A70C046BD4602B080BDC01900201A
:103B100080B582B000AF7860044A7B68D318183350
:103B2000FF221A70C046BD4602B080BDC0190020F9
:103B300080B582B000AF7860044A7B68D318183330
:103B40001B785BB21800BD4602B080BDC0190020D2
:103B500080B582B000AF7860054A38217B68D31801
:103B60005B181B785BB2DBB21800BD4602B080BDAB
:103B7000C019002080B582B000AF7860044A7B682D
:103B80009B00D31804331B681800BD4602B080BDEB
:103B9000C019002080B588B000AFF860B960FB1D87
:103BA0001A701F23FB18FF221A70FB1D1B78002BB5
:103BB00001D0002300E004237B61FB1D1B78002B58
:103BC00001D0042300E005233B617B69BB6116E063
:103BD000114ABB699B00D31804331B6801330BD116
:103BE000FB1D1B78BA68B969F868FFF751FF1F23FE
:103BF000FB18BA691A7006E0BB690133BB61BA6988
:103C00003B699A42E4D31F23FB181B785BB2180070
:103C1000BD4608B080BDC046C019002080B582B046
:103C200000AF0200FB1D1A70FB1D1B780B4A9B00A6
:103C3000D3180433012252421A60FB1D1B78032B58
:103C400008D9FB1D1B78043B044A3821D3185B18A4
:103C5000FF221A70C046BD4602B080BDC0190020C8
:103C600080B582B000AF1D4B1B78002B01D008231C
:103C700030E0FB1D00221A7009E0FB1D1B781800C4
:103C8000FFF746FFFB1D1A78FB1D01321A70FB1D62
:103C90001B781F2BF1D9FB1D00221A7009E0FB1DB8
:103CA0001B781800FFF7BAFFFB1D1A78FB1D0132C5
:103CB0001A70FB1D1B78042BF1D901210620FFF798
:103CC0008DFC80231B061800FFF7E4FC034B012248
:103CD0001A7000231800BD4602B080BDC019002034
:103CE00080B500AF034B1B785A1E9341DBB218001E
:103CF000BD4680BDC0190020B0B584B000AF78606B
:103D000039600023FB607B681800FFF761FE031E2B
:103D100002D00823FB6038E03B689B78002B1CD066
:103D20000B257C197B68012200211800FFF732FF68
:103D3000030023707B191B785BB201330AD07B1917
:103D4000002018563B681A783B685B787968FFF763
:103D500039FD06E00423FB6003E07B681800FFF7F1
:103D6000C7FEFB68002B10D17B681800FFF76EFDC3
:103D70003B685B78012B04D17B681800FFF7D6FD08
:103D800003E07B681800FFF7E1FDFB681800BD4603
:103D900004B0B0BDB0B586B000AFF860B9607A606D
:103DA00000237B61FB681800FFF75EFE031E02D054
:103DB00008237B614CE0BB68DA7813257C197968AD
:103DC000FB681800FFF7E6FE030023707B191B78E1
:103DD0005BB201333AD0BB689B78002B04D0FB6800
:103DE0001800FFF759FD06E0BB685A78FB68110020
:103DF0001800FFF73BFDBB68DB78002B0AD01323CC
:103E0000FB1800201856BB681A78FB681900FFF7EA
:103E100079FC1DE013203B181B785BB2043B0F4A72
:103E20003821D3185B1800215956BB681B789B01B9
:103E30005AB23B181B785BB2043B0A4350B2074AA4
:103E40003821D3185B18021C1A7001E004237B612F
:103E50007B691800BD4606B0B0BDC046C019002041
:103E6000B0B586B000AF78600A00FB1C1A707B68A2
:103E70001800FFF7E3FD031E3AD07B681800FFF738
:103E800057FE0300043B0D257C191800FFF760FE68
:103E9000030023700C217B187A19127892091A708A
:103EA0007B181B78032B0FD1FFF774FD0200012153
:103EB0007B6899400B00134001D0032200E00222EE
:103EC0001723FB181A700AE00C23FB181B78012B30
:103ED00001D1022200E003221723FB181A701723D6
:103EE000FB181A787B6811001800FFF7EFFC27E039
:103EF0007B681800FFF780FD031E21D07B68180047
:103F0000FFF716FE03003B613B699BB240339AB258
:103F10000E243B1992001A803B691800FFF7DAFB68
:103F20003B191B881800FFF790FBFB1C1B78002B2C
:103F300006D001223B699A4013001800FFF7AAFB44
:103F4000C046BD4606B0B0BD80B582B000AF786057
:103F50007B681800FFF70CFD03005A1E9341DBB28B
:103F60001800BD4602B080BDB0B58EB000AF0023D2
:103F70007B6300233B632A23FB18802252001A80B4
:103F800001237B620023FB6225E02A243B191B8866
:103F90001800FFF745FB031E11D00122FB6A9A406F
:103FA00013001800FFF786FB031E08D03B191B887F
:103FB0001800FFF74AFB7A6B7B6A13437B637B6ACB
:103FC0005B007B622A22BB18BA18128804321A805E
:103FD000FB6A0133FB62FB6A032BD6D9BE235B006D
:103FE0001800FFF71DFB031E0DD0BE235B00180059
:103FF000FFF72BFB7B6B8022120613437B63FFF7DB
:10400000C9FC03003B637B6B0F2213402BD00123C1
:104010007B620023FB6223E07B6A7A6B134019D03A
:10402000FB6A1800FFF7A6FB03003B621F257C1903
:10403000FB6A1800FFF7B2FB03002370FB6A18004D
:10404000FFF798FD0300BB617B1919783A6ABB69D9
:10405000100098477B6A5B007B62FB6A0133FB625E
:10406000FB6A032BD8D97B6B002B67DA0023FB623A
:1040700061E017257C19FB6A1800FFF769FD030052
:10408000237029007B181B78C02293433B610F23C8
:10409000FB187A18127892091A7001223B699A402B
:1040A00013007B623B691800FFF7C8FC031E3FD07A
:1040B0003B691800FFF73CFD03001800FFF75AFDAD
:1040C0000300BB60BB68002B32D0FC1D3B691800AD
:1040D000FFF76AFC030023707B6A3A6B134003D03E
:1040E000FB1D1B78022B07D07B6A3A6B13401FD154
:1040F000FB1D1B78032B1BD10F23FB181B78032BF5
:104100000FD1FB1D1B78022B01D1032200E00222FC
:10411000BB1D1A70BB1D1A783B6911001800FFF710
:10412000D5FB0F23FB1819783A69BB681000984734
:10413000FB6A0133FB62FB6A002B9AD0C046BD4686
:104140000EB0B0BD80B500AF00F01CF8031E06D065
:10415000094B0A4A1A600A4B802212021A6000F0C8
:1041600051F8031E05D08023DA05C123DB000121AD
:10417000D150C046BD4680BD04050040DFFF07C0EA
:10418000186C004080B500AF1A4B1B68FF2213402B
:10419000012B2AD1184B1B680F22134025D1174B36
:1041A0001B68F022134006D1154B1B68F022134008
:1041B00001D101231AE0114B1B68F0221340102B90
:1041C00006D10F4B1B68F022134001D101230DE0F3
:1041D0000A4B1B68F0221340302B06D1084B1B689A
:1041E000F022134001D1012300E000231800BD4656
:1041F00080BDC046E00F00F0E40F00F0E80F00F0D3
:10420000EC0F00F080B500AF0D4B1B68FF22134090
:10421000012B11D10B4B1B680F2213400CD10A4B01
:104220001B68F0221340402B06D1084B1B68F0227C
:10423000134001D1012300E000231800BD4680BDDA
:10424000E00F00F0E40F00F0E80F00F0EC0F00F0DA
:1042500010B50021040000F0DFF8044B1868C36BB0
:10426000002B00D09847200001F06EF97059000033
:1042700070B50C4D0C4E761BB61005D0002408CD41
:1042800001349847A642FAD101F060F9074D084E73
:10429000761BB61005D0002408CD01349847A642FD
:1042A000FAD170BD3C0400203C0400203C040020F6
:1042B00044040020F0B5C64600B50F2A41D90327B3
:1042C0000D003E0005430C0003002E402F423DD15F
:1042D0001500103D2D09AC462D01A84680442568E7
:1042E00067681D605F60A568E7689D60DF601034E7
:1042F0001F0010334745F2D165460F230C240135CA
:104300002D01491913404519144222D08C59AC5142
:1043100004369C1B032CF9D80324043B9B0801336F
:104320009B002240ED18C918561E002A06D0002313
:10433000CC5C1A00EC5401339642F9D180BCB846EB
:10434000F0BD0500561E002AF1D1F7E70500561E04
:10435000EDE71A00F6E7C046F0B5050083074AD03E
:10436000541E002A44D003000322CEB202E00135DD
:10437000013C3DD301332E701342F8D1032C2FD9C9
:10438000FF220A40150215432A0415430F2C35D984
:104390002700103F3F093E01B4461E001A001036A8
:1043A0006644156055609560D5601032B242F8D110
:1043B0000F260C2201373F012640DB19370022422D
:1043C00017D03E1FB608B400A4461A001C1D644452
:1043D00020C2A242FCD103240136B6009B193C4006
:1043E000002C05D0C9B21C19197001339C42FBD1B5
:1043F000F0BD3400F4E714000300BFE72700E0E756
:10440000034B10B5002B02D0024800F08FF810BD0E
:1044100000000000FD440000F0B5DE464E46574661
:104420004546E0B5334B83B01B68019018000093FC
:104430000F0000F077F8304B1B681A000093A4239C
:104440005B00D658012299469346002E30D07468FE
:10445000651E2DD4C4235B009A460134A400341990
:10446000B24402E0043C013D22D3002F04D080235B
:104470005B00E358BB42F5D173682268013BAB4255
:1044800032D000232360002AECD07368514698464E
:104490005B46AB400968194215D1904773684345A4
:1044A0001ED14A46009B9B58B342DBD01E1ECED184
:1044B000104B186800F038F803B0F0BCBB46B246A9
:1044C000A946A046F0BD31008D31FF31096819427F
:1044D0000CD180230198E158904773684345E0D0A0
:1044E0004A46009B9E58B0E77560CCE78023E058B1
:1044F0009047D3E7380400207059000070B5074D8D
:10450000074C641BA41005D0013CA300EB5898474E
:10451000002CF9D101F020F870BDC0464404002001
:10452000480400207047C0467047C04610B50100DF
:1045300000230022002000F001F810BDF0B5D6469F
:104540004F464646C0B5264F82B0060038689246B0
:1045500098468946FFF7E6FF224B1B680193A42388
:10456000019A5B00D558002D2ED06C681F2C30DCD2
:10457000002E0FD1631C6B604B460234A4003868D8
:104580006351FFF7D1FF002002B0E0BCBA46B1464C
:10459000A846F0BD882251462800A300EB18995088
:1045A000873AA2408930FF300168114301608421BD
:1045B000404649005850022EDCD12B008D33FF338A
:1045C00019680A431A60D5E715004D35FF35D550F7
:1045D000CBE73868FFF7A8FF01204042D4E7C04688
:1045E000380400207059000003685A0004D5802266
:1045F00012061343C01870475B005B08FAE7C04619
:10460000F8B557464546DE464E469046E0B50700AB
:10461000002924D04B1E9A46994600239B465B46B0
:104620004B44DC0FE4186410E5007E193000FFF7FE
:10463000DBFFA2450CD040450CD8280008303818C4
:10464000FFF7D2FF013840450AD2631C9B46E6E7DC
:10465000404505D9A34502D0631E9946DFE70026F1
:104660003000F0BCBB46B246A946A046F8BDC046E5
:104670000300012805D0022807D00020002B02D01B
:1046800070470348FCE70348FAE70348F8E7C046E9
:104690007D4D0000714D0000894D000030B5234B69
:1046A000050083B08C1E002B26D0200001A900E05D
:1046B00000BF00281CD001992200FFF7A1FF041EB3
:1046C00016D0FFF791FF6368A864012B2AD0201D44
:1046D000002B23DBFFF788FF0023E8642B650368CA
:1046E000002B0FDBFFF780FF2861002003B030BDF7
:1046F000002309202B61F9E70D480E49091AC9105A
:104700000191D9E71801000FFFF7B2FF2861431E9E
:1047100098410823404298430930E7E70123E864C1
:104720002B65DCE7002305202B61DFE7000000009C
:10473000C0590000C85A0000036810B50400DA0729
:1047400005D49B070AD5483000F07CFC23685A0743
:104750000AD51A070FD5DB0615D510BD483000F075
:104760006DFC23685A07F4D42000D03000F06EFCB2
:1047700023681A07EFD420005130FF3000F06AFCA4
:104780002368DB06E9D42000D130FF3000F066FC5E
:10479000E3E7C04603000068002800D0C018704757
:1047A0007047C04670B504000D002000296CFFF76B
:1047B00075FF002811D12B6C2A00636121000120B4
:1047C000236998470828F0D0072806D10020296CD3
:1047D000FFF7E6FF281D00F01BFC00F04DFEC04671
:1047E000F0B5CE46474680B5C368304C9846A544E0
:1047F0008369040016000431402205A89946FFF79A
:1048000059FD0023049325E0F022149B52006361BC
:1048100004A97CA80393FFF74DFD2100280023691C
:104820007CAA98478A9B0500039315934B460193F6
:1048300004AB00932200230031000120C047002870
:1048400022D1F0227CA9520004A8FFF733FD0026F4
:10485000082D22D1149B200019000393FFF71EFF9F
:1048600009360700F5B20028CED0129B1021039321
:1048700015934B46019304AB0093220023000120C3
:104880002943C047002800D009273800F5239B00A2
:104890009D44C0BCB946B046F0BD072DF4D13000F0
:1048A0001499FFF77DFF05A800F0B2FB2CFCFFFF79
:1048B00070B5CB6BFAB00B6405000E0040220431DA
:1048C00003A8FFF7F7FC01235B42029306E02900EF
:1048D0002B6902AA9847040008280AD1129B2800D5
:1048E00019000193FFF7DAFE0028F0D009207AB012
:1048F00070BD02A8FFF720FF062CF7D13100280079
:10490000FFF750FF10B58261DA6BC1601A641900BD
:104910000022FFF765FF10BD436970B50B64C368E3
:1049200004000D00002B13D10A00236901000220AE
:104930009847072805D008280FD129002000FFF745
:1049400031FF0020296CFFF72BFF281D00F060FBD2
:104950000122FFF745FF00F08FFD00F08DFDC046FE
:10496000C36810B5002B05D0CB6B00220B64FFF79A
:1049700037FF10BDFFF79CFFFBE7C046012915D0AC
:104980000AD8002B10D10F2A0ED892008218526834
:10499000009B00201A6006E001200339C9B288425A
:1049A00080414042013070470220FCE70120FAE7D5
:1049B00000B585B003AB0A00009300210023FFF788
:1049C000DDFF039805B000BD012915D00AD8002BE2
:1049D00010D10F2A0ED8009B92001B6882185360DA
:1049E000002006E001200339C9B2884280414042DC
:1049F000013070470220FCE70120FAE700B585B0DE
:104A000003AB039200930A0000230021FFF7DCFFB1
:104A100005B000BD70B51A4CD36BA54413640500F6
:104A20000C0019A8111D4022FFF744FC01235B4232
:104A3000189314E00C2118A802AAFFF7DFFF210049
:104A400018A8A847002812D1069B18AA02A9083066
:104A500001939847060005280AD0092807D0289B0B
:104A600002A819000193FFF719FE0028E2D00926D9
:104A700018A8FFF761FE300090239B009D4470BD95
:104A8000C0FDFFFFF0B557469246032245464E460D
:104A9000DE4699461300E0B58846CD6C494689B09C
:104AA0000340009308CD0695002900D180E01A0C40
:104AB0001B040593022304A90B73FD3313409B00D1
:104AC0004A73ED18009B022B01D143469D6B434670
:104AD0001B6DDB070FD5504605A900F055FB0028DC
:104AE00001D1082000E0092009B0F0BCBB46B24665
:104AF000A946A046F0BD2F68002FECD00823034044
:104B0000029300230193013354469B464646BA461E
:104B10004B46022B49D02B886F889A4604355B465A
:104B200038009843B36C0F21984680442000FFF76B
:104B30003FFF0023804506D853465A4693434344DB
:104B400098429B415B4202227F00174059465246E1
:104B50000A401743012F30D0022F4CD0002FC2D172
:104B6000009A002A02D0002B00D09BE004352B686D
:104B70009A46002BCCD1200005A9A24600F004FBE8
:104B80000028B0D1019B002BABD00F215046FFF77E
:104B90000FFF0E2102005046FFF730FF50460F2155
:104BA000724AFFF72BFF07209EE76F680835B6E7CC
:104BB0001B02059304AB9A8184E7009A002A49D12D
:104BC000002B16D02B68DF0F6B689A1C00D18AE788
:104BD000320058320492013300D1B6E0281DFFF7AD
:104BE000D9FD3A00010004AB300000E000BF00280E
:104BF0006CD10835BBE72A68009957007F08002967
:104C00000DD1002B04D0029B002B72D0002F3CD082
:104C1000002A00DA04350137BF00ED19A7E7336A2F
:104C20000D2120009846FFF7C3FE804501D02A6879
:104C3000EEE7B36A9D42FAD10023F3620433336393
:104C40002B1DB76273632B68002B00DA87E001230A
:104C50000193E0E70D212000376AFFF7A9FE8742A4
:104C6000C7D1B36A9D42C4D1B046A2462800FFF71F
:104C7000BBFC0F2102005046FFF7C0FE50464246E3
:104C80000021FFF7BBFE07202EE7B046A2460D210C
:104C90005046FFF78DFE4346049A18625A6206207A
:104CA0009D6221E72800FFF79FFC0435A246B5630B
:104CB0000400300000E000BF002800D113E7504698
:104CC00022000F21FFF79AFE07200DE7A2460D21D3
:104CD00004005046FFF76CFEB04633003062022CF1
:104CE00039D1049A2C33F2627362434606209D62E6
:104CF000FAE62B1D9A460023984658339C4621001D
:104D00004A46B4445446A9468A463D000392474663
:104D1000E0460EE0434620000493FFF73BFD0022EF
:104D2000010004AB300000E000BF0137043400286C
:104D300004D1AF42EED14D46B046A8E72F004D4614
:104D4000039B544699462A6862E70D212000FFF72D
:104D50002FFEB04630624346049A5A62C5E7781C7B
:104D60008000B046A246281881E7C0460000000037
:104D700010B50023FFF786FE10BDC04610B5012315
:104D8000FFF780FE10BDC04610B50223FFF77AFE84
:104D900010BDC046F0B5CE46474680B505001400AC
:104DA0001E00C3B0032970D04DD8002900D174E093
:104DB00001296CD1130C14049846240C012E00D147
:104DC000A8E0052E63D11B19202B60D842460F2A7C
:104DD00000D8C0E0A146002C00D0D1E0AA6B20AFE3
:104DE000002C2ED0002399464346DB00FF180023F9
:104DF000E400D158F95004339C42FAD14B461219C1
:104E0000002B10D06F464046102800D210204B4691
:104E1000D90000231038C0003818D458C4500433C7
:104E20009942FAD15218012E00D1CFE04346AA632D
:104E30000F2B00D8CCE04B46002B02D0684600F088
:104E400005F9002024E0042921D1002B1FD1102ACC
:104E50001DD8102203681A4200D0A9E020AF380004
:104E600000F0FEF800230120AA6B010099400C42DB
:104E700002D040CA99007E500133042BF5D138008E
:104E8000AA6300F0EBF8002002E0032B1FD0022001
:104E900043B0C0BCB946B046F0BD002BF7D10121EC
:104EA0008846291D00238C461004AA6B000C41463D
:104EB0009940084203D0664680CA99007750013372
:104EC000102BF4D10020A304E2D4AA63E0E7140479
:104ED000160C240C3319102BD9D8082203681A4257
:104EE0006DD120AF380000F0B7F8F600AB6B002CA6
:104EF0000AD0F61AE400321F1C19BA181900096802
:104F000004339950A342F9D13800AB6300F0A2F802
:104F10000020BDE71B19102BB9D843460F2BB6D87C
:104F20002B681E4206D00322280093432B60483092
:104F300000F086F820AF380000F082F80023AA6B5A
:104F40009946002C00D04FE704323800AA6300F0E5
:104F500075F800209CE7102B45D91022524291464B
:104F6000994401222B681A4207D093430222280059
:104F700013432B60483000F067F84B46002B35D0C8
:104F800004222B681A4227D143460F2B03D820AFA7
:104F9000380000F059F86F46380000F059F8102436
:104FA0004346AA6BE41A002C00DC2CE720AF1BE779
:104FB00093430360D130FF3000F052F84EE7934343
:104FC00003605130FF3000F047F88AE720AFBBE7BD
:104FD00020A800F037F82EE7280093432B60D0304C
:104FE00000F036F8D0E700239946BAE743460F2B86
:104FF00000D9F3E620AF380000F026F8AA6B002CA9
:1050000000D0EFE6380000F01DF8002040E7C04671
:10501000011C343138C9043B9C461D60A646011C66
:1050200020313CC990469946A246AB46011C083146
:10503000FCC941680068E54600BDC0467047C046EF
:105040007047C0467047C0467047C0467047C0466C
:105050007047C0467047C0467047C0467047C0465C
:105060007047C04601B401A801B585B0FFB408A8D7
:1050700041464A4653465C4665463EC001A83EC886
:105080000F98009000230CB401A9FFF711FC109BAE
:1050900012B0184701B401A801B585B0FFB408A843
:1050A00041464A4653465C4665463EC001A83EC856
:1050B0000F98009000230CB401A9FFF72DFC109B62
:1050C00012B0184701B401A801B585B0FFB408A813
:1050D00041464A4653465C4665463EC001A83EC826
:1050E0000F98009000230CB401A9FFF739FC109B26
:1050F00012B0184701B401A801B585B0FFB408A8E3
:1051000041464A4653465C4665463EC001A83EC8F5
:105110000F98009000230CB401ABFFF7F3FB109B3A
:1051200012B0184701B401A801B585B0FFB408A8B2
:1051300041464A4653465C4665463EC001A83EC8C5
:105140000F98009000230CB401AAFFF763FC109B9A
:1051500012B01847027A0300002A0BD1427A002AC3
:105160000FD0013A42724268111D4160032112685A
:10517000017202E0013A02720268100E12021A6015
:105180007047B020FCE7C046F0B54E46454657464E
:10519000DE460023E0B587B003930F339846083B03
:1051A000994680231B0305000E009A463000FFF746
:1051B000D1FF0400B02800D1C1E0030629D50300C7
:1051C00042469343DBB2802B53D0902B3DD0A02B93
:1051D0006BD0B02B00D17EE0C02B00D195E0030056
:1051E0004A469343DBB2D02B0AD1534602400132E8
:1051F0001A43052301212800FFF7CCFD0028D5D054
:105200000924200007B0F0BCBB46B246A946A04620
:10521000F0BDFF23820013401F1D05AB9B4600938A
:105220000D22002300212800FFF7A8FB630639D4D4
:10523000059B9C4667445B460597009300230D221F
:1052400000212800FFF7C0FBB0E7833B03400D2B94
:10525000D6D005AF02400023002128000097FFF7B9
:105260008DFB00230D22002128000097FFF7ACFBE7
:105270009CE704023000FFF76DFF802720433F02C8
:10528000B842BDD004010005020C00230021280013
:10529000FFF780FD0028B3D13C4200D186E701230F
:1052A000039383E7059BDF1BC5E7FF234A461B01EA
:1052B0001900824311410A001A40030702D58023D6
:1052C000DB011A43002300212800FFF763FD0028BB
:1052D00000D16BE794E7B12845D0B22800D19FE018
:1052E000B32855D0FC230340B42B00D188E74A46AD
:1052F0005346024001321A43012101232800FFF7DF
:1053000049FD002800D151E77AE7C6284BD0C728CD
:105310005DD003004A469343DBB2C02B6CD0C82853
:1053200071D0C92800D06BE73000FFF713FFF023DE
:1053300002031B03134042460240013258E7039B1D
:105340000024002B00D05CE705AE0E2200212800CF
:105350000096FFF713FB00230F2200212800009680
:10536000FFF732FB4DE73000FFF7F4FE021E00D1DD
:1053700046E7030041468B43DBB2002B00D03FE7FA
:1053800000212800FFF706FD002800D10EE737E7CF
:105390003000FFF7DFFEF02302031B0313404246F9
:1053A00002400132A7E73000FFF7D4FEF0230203EA
:1053B0001B0313404246024001321A4303230321D8
:1053C0002800FFF7E7FC002800D1EFE618E73000DF
:1053D000FFF7C0FE021E00D112E7030041468B43D7
:1053E000DBB2002B00D00BE704212800FFF7D2FC32
:1053F000002800D1DAE603E74346A0221C4001342E
:1054000012032243DAE73000FFF7A4FE434602000E
:105410009A43D2B210321840120301300243E8E638
:1054200005AB00939B460D22002300212800FFF7C7
:10543000A5FA3000FFF78EFE03061AD57F27B03C91
:10544000059B3840A0409C466044059030000734DE
:10545000FFF780FE0306F3D481217F2389008C4669
:105460000340A340059A62449B1805935B46009352
:10547000E4E60224F0E7C046062010B500F032F85A
:10548000012000F061F8C04670B505000C001F292E
:1054900022D8B7239B00C358002B0ED08A009B183C
:1054A0001A68002A09D0012A14D0511C0ED00021FC
:1054B000200019609047002070BD280000F030F8EF
:1054C00022000100280000F017F8F5E7162303601A
:1054D0000120F1E70020EFE716230360012040429E
:1054E000EAE7C04610B5034B01001868FFF7CCFF90
:1054F00010BDC04608000020002370B5074D040011
:10550000080011002B6000F017F8431C00D070BD9C
:105510002B68002BFBD02360F9E7C046381A002027
:1055200010B500F001F810BD58220120014B404297
:105530001A607047381A002058220120014B40425F
:105540001A607047381A0020FEE7C046F8B5C0461A
:10555000F8BC08BC9E467047F8B5C046F8BC08BC0D
:105560009E46704749444C4500000000546D72202F
:1055700053766300546D7251000000007A210000E0
:105580007A2100007A210000F2210000C8210000E9
:10559000E62100007A2100007A210000F2210000BB
:1055A000C82100002E2800003428000040280000F8
:1055B0003A28000046280000010002030000000015
:1055C00000509D000D0A00002D000000202020202A
:1055D000202020602A2D2E20202020202020202066
:1055E000202020202020202020202000000000203B
:1055F000202020202020202920205F602D2E202008
:1056000020202020202020202020202020202000BA
:105610000000202020202020202E20203A20602E54
:10562000202E20202020202020202020202020206C
:105630002020000000202020202020203A205F2071
:105640002020272020202020202020202020202053
:105650002020202000000000202020202020203BAF
:10566000202A60205F2E202020602A2D2E5F2020FF
:10567000202020202020202000000020202020208A
:105680002020602D2E2D27202020202020202020AB
:1056900020602D2E2020202020202000000020200F
:1056A000202020202020203B20202020202020609F
:1056B00020202020202020602E20202020200000DC
:1056C000002020202020202020203A2E20202020D2
:1056D0002020202E202020202020202020202020BC
:1056E000000000002020202020202020202E20202C
:1056F000202E2020203A2020202E2D272020202E52
:105700002020200000000020202020202020202019
:10571000272020602B2E3B20203B202027202020EC
:105720002020203A202020000000202020202020BF
:105730002020203A20202720207C202020203B20D1
:105740002020202020203B2D2E2000000020202083
:105750002020202020203B20272020203A203A60B3
:105760002D3A20202020205F2E602A203B000000C0
:105770005B6275675D202E2A27202F20202E2A2786
:10578000203B202E2A602D202B272020602A272036
:10579000000000202020202020602A2D2A20202008
:1057A000602A2D2A2020602A2D2A27202020202030
:1057B00020202000000000002020202020202E5F3C
:1057C00020202020205F2E202020202000202020AC
:1057D0002020207C5C5F5F5F2F2F7C2020202020FA
:1057E00000002020202020207C3D36202020363D37
:1057F0007C2020202020002020202020203D2E5F03
:10580000595F2E3D2F202020202000002020202026
:1058100020202029202060202028202020202E2029
:10582000002020202020202F202020202020202089
:105830002028282000002020202020207C2020203C
:10584000202020207C20202029290020202020200A
:105850002F7C207C2020207C207C5F2F2F200000AC
:105860006A677320207C207C2E5F2E7C207C2F2D6D
:105870006020200000202020202020272727202013
:105880002027272720202020200000005B52544F93
:10589000535D20436F6E736F6C65207461736B2072
:1058A000696E6974204F4B0069742773206D652CF5
:1058B000206D6172696F000074686572652C2067E5
:1058C000656E6572616C204B656E6F6269000000E9
:1058D0006D7920667269656E6400000048617665C6
:1058E00020736F6D65206B697474790054686174FE
:1058F0007320616E6F74686572206B6974747920AF
:10590000666F7220796F7500576169742E20546834
:105910006174277320696C6C6567616C000000001E
:1059200048656C6C6F0D0A596F75722072657370E3
:105930006F6E7365205B312D355D3A2000000000ED
:1059400055415254436F6E736F6C6500554152540C
:1059500049646C6554696D65720000000630000092
:10596000103000001A3000002430000066300000C3
:085970001000002000000000FF
:1059780080020181B0B0ABF000000000800101811D
:10598800B0B0AB700000000074B20181B0AB3080E1
:105998000000000080080181B0B0ABF000000000FA
:1059A8003F020181B0AB3080000000008006018119
:0859B800B0B0ABF000000000EC
:1059C00048A7FF7F0100000088E8FF7FB0B0A880F3
:1059D000A0E8FF7FB0B0AA80DCE8FF7F01000000F4
:1059E00020EAFF7FB0B0A88030EAFF7F8CFFFF7F06
:1059F0000CEBFF7FB0B0AA802CEBFF7F0100000012
:105A00002CEBFF7FB0B0A88034EBFF7F78FFFF7FE7
:105A1000D8EBFF7F0100000084ECFF7FB0A902807B
:105A200018EDFF7FB0B0A8806CEDFF7F0100000093
:105A300074EDFF7FB0B0AA80A8EDFF7F54FFFF7F19
:105A400070EEFF7FAA3F3980BCEEFF7FB0B0A88028
:105A5000C8EEFF7FB0B0AA8008EFFF7FB0B0A8808B
:105A60001CEFFF7F01000000ACEFFF7FAA0FB280A8
:105A700014F0FF7F28FFFF7FF8F2FF7FB0B0A8800F
:105A800014F3FF7F24FFFF7F88F5FF7F01000000F4
:105A9000F8F6FF7F20FFFF7FE0F9FF7FB0B0A8801E
:105AA000E8F9FF7FB0B0AA803CFAFF7FB0B0A880D1
:105AB00048FAFF7FB0B0AA8068FAFF7FB0B0A88034
:085AC00068FAFF7F01000000FD
:105AC800FFFFFFFF010000001000002000000000A1
